:20000000704D270A86809A84B710847E74887F0082C601BD7B317E74885FDF139B14D91372
:20002000D7139714DE1339B740009618840F810F261E961E4C971E811E2706813C27092067
:200040000F86F4BD7C09200886F4BD7C2A7F001E96832726962E4C972E811E2E0C8602BDDA
:200060007C098642BD7C2A2011813C26037F002E8602BD7C2A8642BD7C09966C811127302C
:2000800081FF272C0CCE7DE8962927044A488D89EE009619261696664C9766811E2E068645
:2000A000FFA700200B813C26037F00668688A7007F008596898B101997899612270BB62048
:2000C00000844027F97F001239B62000844026F97C0012961F261686F0948CB7108C86BF0C
:2000E0009484B7108486EF9480B71080397A001F392743810127198102271981032719818E
:200100000427198105271C8106271F8107271F397C002639C6022006C6052002C60ADB2677
:20012000D72639C605DB2CD72C398DF720F57C002C397C002839C60220EBB76000CE7D35BA
:200140008D3ECE7D548D39CE7D8E8D34CE7D7A8D2FCE7D1F8D2A96852716962F84108110F1
:200160002609CE7CDBEE016F002005CE7CC520F5CE7CF98D0BCE7CDB8D06CE7CC58D01391B
:20018000DF7DDF20EE01A6002605A601264F39DE20A103270BA10427584CEE01A7002010E5
:2001A000DE20EE01A6012650DE20EE016C00A600DE20D680C4F0EA00F71080BD7819A600C9
:2001C00036840FD684C4F01B33B71084BD7C23968884F01BB71088B730003131392A066F36
:2001E00001860720AA6A01DE20E60527F48D1020F0DE20EE016F00396F00DE207E7980967C
:200200008B270139860297179719379183270D7F00838602BD7C2A8642BD7C2A3396294A39
:2002200048489723860E90237F002397245A2B4517491B9B17CE7B20F6200D2B03CE7B28AE
:20024000BD781908DF15DE1509DF15E600370736D6295A17481B9B17CE008DBD7819A60036
:20026000163206178900331B19A7007A00172CD68D4F7C0017CE008DD6295A17481B9B17A0
:20028000BD781909DF158D3127231784F027248D088D268D048D228D00DE23E70009DF232D
:2002A0007C001796178103270139313139CAFF8DE820D3CAF08DE220D8DE1508DF15E60057
:2002C00039369629CE00BFBD7819A60026153337B6200D2B04C1502002C1102606E700861B
:2002E0002897BF9629CE0078BD781996DFE600C1012D092EB6B620092AB196E0331126ACB0
:200300009629CE0078BD78196C00968C8A01B7108C8604971FB6200C2A037E76B27E76B97C
:2003200000000A000100000A000050000500005000C601B620082B0896224A911C260158FD
:200340005D270F9682811E27097C00825A20F17A008296822738CE7BEABD7819A600168486
:20036000F081102753812027598130275B378674BD7C2A33C40F271617CE7DD8BD7819DFF0
:2003800020A600BD7C09DE20098C7DD826F19682811E2723CE7BEBBD7819A600840F27175C
:2003A000CE7DD8BD7819DF208C7DE2270AA600BD7C2ADE200820EF398D188674378D4A337A
:2003C00020B28D0E86B420F486748D06378D3A3320F236374F36CE7DD9BD7819A6008D4AB1
:2003E00032810A27034C20ED333239010203040506070809101112131415161718192021E4
:20040000222324252627282930DFDB8D07AA00A700DEDB398D0CCB30D7247F0023DE238439
:200420000F391656565656C40F39DFDB8DE643A40020DCB620022A7486818DCD86C18DEA55
:200440007C008B863297867F006E8606CE7CBE36BD7819A600978ABD78277C006E7A008AAA
:2004600026F5D6868B3084F08B0019971C5A3736962526037C0026BD793A32335D26E532C3
:200480007A0086270CD66EC1302DC14A7F006E20BB9689971CCE000C8CFFFC270FA10026C4
:2004A0000536BD76B2320909090920EC7F008B86E2BD7C09966D810126014C97E139280D28
:2004C0000602060D200E00250E1601112233445566778899AABBCCDDEEFFEE04002B101D47
:2004E00002FFFEDFCFBFAF9F8F7F6F5F4F3F2F1F2F3F4F5F6F7F8F9FAF0300271725033307
:2005000022110F112233445566778899AABBCCDDEEFFEEDDCCDDEEDDCCBBCCDDCCBBAA08F9
:2005200000BE14150011FF22EE33DD44CC55BB66AA779988880800BB1E1F000112233445A5
:20054000566778899AABBCCDDEEFDECDDECDDECDDECDDECD03006A1824000000000001122F
:20056000233445566778899AABBCCDEFFFEFDECDBCCDDEEFFFEFDE0000000700B7121300C6
:20058000445566778899AABBCCDDEEFFEEDD0800B91213001F2F3F4F5F6F7F8F9FAFBFCF84
:2005A000DFEF001122334455664001132758698AB0020102030411131506170507210421DE
:2005C000A2C2E1628222A1443884C418945461111491D451D252D112923171B1F13272B2FC
:2005E000F23474B42464A4E4000F000B0007000305151020203620372043204120472048EF
:200600002049204A204B204400000406050706090710081109121013111412151316141705
:200620001620182220252227000020302535304535504055456050655570607565807085B5
:200640008095809585958595108C10203A22108C20203922108420202671108080202771AA
:2006600000E501203BF700E60120305300E70120315300E8012032D300E9012033F700EA00
:200680000120427100EB0120401100EC0120467100ED0120245300EE0120255300EF012049
:2006A0003C0000F001203D0000F101203ED500F201203FD500F30120340000F401203500D2
:2006C00000F5012045333B4FB76000B71080B71084B71084B71088B7108C97189783BD7F67
:2006E000EFCE000886FF976CBD7FF2D6DFD70EF620092B08CE000CBD7FF2200496E0970A50
:20070000961A971D96224A971C86F19700CE003086FFA700088C004026F88D7D26FC8C00DE
:200720002F27136F000920F6861736BD793ABD7827324A26F53996888A40B7108886FF9700
:200740001C978B7C000086017F00C5971D2000B620122B1AD61DC10126148D3D26F12059CA
:200760008DC67C00C5961D4C810926DF20D8CE7F9196C5BD7819A600BD7C14369624CE1017
:2007800050BD78198601332704485A20FA8D1C20CF47C5C60745C7C405BD7827B6200BD6C1
:2007A000C497C45D2B044D2A014F39DFDDA700BD7F28DEDD6F007E7F287F10887C0000865F
:2007C000017F001DCE2010E6002A0E971D7C0026DFDD36BD7F28DEDD324C19088C204C263C
:2007E000E68DB626DA8611976C8688971C971DCE001009A7008CFFFF26F8394E7EC6700050
:00000001FF
