:200000008E0060CE11FF6F00098C100F26F87A00C44FCE204FE6002A014C49098C204B263D
:20002000F4CE7E08F6200D2B03CE7E28BD7819A60097DFA60197E0BD7FE9C604B620032A39
:2000400002C606D722CE7DF04FF6200F2A014C48F6200E2A014CBD7819A600971A861197FD
:200060006CBD7F9C2605BD7EC72095860F9718860197839B9D979D840F810F266B7C00B326
:20008000261B86FFBD7FEF86FB97B3D629270ED1E126015F5CD7295FD717BD7A1D96C5815F
:2000A0001B260286FA8B0697C5CE7DBEBD7819A600BD7C09A601BD7C09A602BD7C098C7D75
:2000C000D6260786FD97C5CE7DBBA603BD7C2AA604BD7C2AA605BD7C2A9682811E260486AA
:2000E000FF9782C601BD7B317F006DBD793ABD78277F0019B62020BA2021BA20132A1696B4
:200100008084DFB7108086FF97BD860A97BC20D87A00BD20D396BC26F796192672961A91E0
:200120001D275696808A20B710809665260A8D1717BD7819A6009765968726198D09BD7821
:2001400019A6009787200EBD720DBD7C14D624C030CE7DB23996898410271ED663B62010D4
:2001600097635D2B054D2A028D42D664B6201197645D2B054D2A028D38D669B620129769A2
:200180005D2B034D2B15966C811027127E70617F006C968084DFB710802006BD725BBD72A2
:2001A000EC966C27F9811026DF7E7119CE00652003CE00878604971F86109A80B71080DFD2
:2001C000DB961D818826034F971DA60085F02724168010C40F360C563727058D555A20F92D
:2001E000333210368D1D270632DEDBA700393297659787391627058D395A20F98D0527EF0A
:200200004F20E68D08BD7C148B309024394FF620062A014C49F620072A014C49F620002AB7
:20022000014C49F620012A014CCE7DA2BD7819A600397C006B961D8B0119911A2E06971DAE
:20024000911A2616968084DFB71080397F0068966227077A00628DDA20F239D66DC10426F5
:200260000531317E71A1961D27F7818827F35CD76D4A16C40FC10F260484F08A098B00191B
:20028000971D966C81102740CE00986F00098C008C26F886FFBD7FEF8610976CCE009EA740
:2002A00000088C00B326F84F97B3978B972997C097C197C297C3D6DF260286039779977A75
:2002C000977B977C86FE9799968C8A02B7108C8604971F966D4A48CE7DE8BD7819EE0009F7
:2002E00009094FA7004C971C7A002839CE7E48DF10BD7F9CD6E35896C42B015CD7E32603EB
:200300007E7066962A2B29969C48F62021FA2013FA20202B014C979C27068407810426103F
:20032000D72A97BC8641BD7C094F972C97269728961B811F260B79001B860F9718860A9751
:20034000B8962A2B0996888A40B710882006968884BF20F5CE00718D08CE00758D037E7683
:20036000DFDF7DA603261EA602261D8C0075270C968C84BFB7108C962A2A2439968C847F12
:20038000B7108C20F26A03396A028C00752708968C8A40B7108C39968C8A80B7108C3996F0
:2003A0002927FB8C00752722CE7DFEDF20CE7DF44FDF23EE00E6002A014CDE2308089C20B8
:2003C00026EFDE7DE601112E0B39CE7E08DF20CE7DFE20DCA70111271637368606E60026B0
:2003E000014ABD78F1BD7B313233DE7D4A20E7A60181052701396F01863CA7038616A70263
:200400006C008C0071272386848D35962D8401261586A18D2B962D8A01972D8403810327B7
:2004200001398622201A8644201686188D12962D8402260A86A18D08962D8A0220DB8662FC
:200440007E7C09DE108606BD78198C7EC62704DF102035BD793ABD78279619271ADEB5083B
:20046000DFB58C1C5C2610CE0000DFB5968C8A08B7108C8604971F86FE9799CE7E48DF10CE
:20048000966C26037E72F1397C00997C0099BD7545A60027056A007E7524DE10EE00A600A1
:2004A000DE10A402264E962A2B99EE03A6002A93BD7545A600263ACE00C6BD7548D69986DC
:2004C00003C1022E028606A700DE10A602EE00AA00A7009699CE754FBD7819EE00AD00DE96
:2004E00010A6058407BD78F1DE10E6052A03BD7B317E7443CE00C68D4F6A00A600810127C3
:2005000016969981022E088D3C860CA70020E28D348603A70020DADE10A60243EE00A40083
:20052000A70020CDDE10EE03A6002B037E749A969981022E088D0E860CA70020EF8D068604
:2005400001A70020E7CE009E0C9699467E7819757975797681768A76D57612762F76487671
:20056000D176927579769276377640759E75AB75C6757A75B475BD757939D681C102271712
:20058000C10127087C008186127E7C09BD7B317C008186927E7C09BD7B31BD7B313986912F
:2005A000BD7C0986019A2F972F202486D1BD7C09860220F186D2BD7C09860420E886D4BD2A
:2005C0007C09860820DF8652BD7C09861020D6962F840381032717962F840C810C271696A0
:2005E0002F811F2721962F84108110270F398651BD7C0920E28614BD7C0920E386C4BD7C0E
:200600000986387E7C098682BD7C098654BD7C0920D386018D6686C2BD7C09962F811F2727
:200620000139DE10A605BD7C221731317E74E386028D49862120E186048D41B67DCC20D8E9
:2006400086088D38866120D086108D30962D8403810326028D47962D2716B6200A2A1586AE
:2006600002978396848A40B71084860A971F97BA86E120A4860A9B28972820F49A1B971BE0
:2006800039962F84038103279939962F840C810C20F57C0085962F8410811020EA968C8AC0
:2006A00004B7108C8604971FB620052A12B620042A078604976B7E723286029783200D867E
:2006C0000A9B28F620042B028B0A97288604976B39866220028644BD7C14A50026BF399673
:2006E000292733966D36CE7DE3BD7819A600BD7C09324A26F0966F270C810126037E778FE1
:200700004A976F20599670270F7E77FE4FB76000972C972697282049867F9484B71084B6B5
:2007200020382A3A962A2BE4961926037E77CC962B9A259A2C9A269A6A9A6B262196279AE8
:2007400028261B961885F026048AF09718D68227107C0028840F27037C0028BD7B4F7E74AD
:2007600088BD7BD24F97829718971B97209771977597729776977886169777977386169747
:2007800074863C976F962926048601972920CF4A976F968327054A9783203196294A49CE94
:2007A0007DE88D75EE0086FFA70096294C916D2E0497292017961C4C9122260A7F10888608
:2007C00011976C7E7C33971C860120E5CE00306F00088C004026F84F972D972F9781971999
:2007E0009766972A9765978786A2BD7C098604BD7C098611BD7C0986C1BD7C0986094A9719
:00000001FF
