:20000000060504020101000000010102040506080A0B0C0E0F0F0F0F0F0F0F0E0C0B0A08E3
:200020000503010000010203050708090A0909080707060708090B0D0E0F0F0F0F0D0B08C2
:20004000040100010305070807050301000104080C0F0F0F0D0B0908090B0D0F0F0F0C08A2
:20006000040203050708070401000205090B0A080605070B0E0F0F0C0908090B0D0E0C0881
:20008000040305080906020002060908050304080C0D0B08070A0E0F0E0A07080B0D0C0861
:2000A000080C0E0F0F0C0907040303060709090808080707090A0D0D0C0907040101010441
:2000C000000104050807080708090A0B0C0B040908090A0B0C0B0A09080908090807040326
:2000E0000003070607080A0706090B0A090A0A0704070B0A09040C0906090B0A0708080308
:2001000000010304060707060605050608090B0C0D0C0A090706060707080808060503020A
:2001200004040000080800000C0C00000F0F00000F0F00000C0C0000080800000404000023
:200140000004080804000004080C0F0F0C0804000004080C0F0F0C080400000408080400D3
:200160000F0F0F0F0F0F0F0F0F0F0F0F0F0F0F0F000000000000000000000000000000008F
:200180000F0F0F0F0F0F0F0F00000000000000000F0F0F0F0F0F0F0F00000000000000006F
:2001A0000F0F0F0000000F0F0F0000000F0F0F0000000F0F0F0000000F0F0F000000000F4F
:2001C0000F0F0F0F0E0E0E0E0D0D0D0D0C0C0C0C000000000101010102020202030303032F
:2001E000020D0F0E0C0803010003080D0F0E0C0803010003080D0F0E0C080301000307080F
:00000001FF
