:200000008E00FF4FCE00D8BD7AFCCE00404CA700088C007C26F84F9773976E976D97689704
:200020006FBD7B48CE000F8688971C971DBD7AFC86FF971E971F97CF867897B54497B68695
:200040000897105FCE204FA6002A02DB10740010098C204B26F1CB05B620082A02CB10BD8B
:200060007CD59789174497191B16BD7CD5978596191B16BD7CD59781C603B620032B02C60E
:2000800005D7BBCE2006BD7AEC48489710CE2000BD7AEC9B10CE7F37BD7CE7A60016840FCC
:2000A00097B954545454D7B8CE2004BD7AEC97B7CE200EBD7AECCE7F33BD7CE7A60097BCF6
:2000C000CE05A0DF7E7F001B860197D3CE7EF608A600270981FF270ABD7B8E20F2BD7120CE
:2000E00020ED09A600270A81FF270B40BD7B8E20F1BD712020ECCE7F3109A600270981FF13
:20010000270ABD7B8E20F2BD712020ED08A600270A81FF27B740BD7B8E20F1BD712020ECCD
:20012000860ADF7CDE7E260586FFBD7AF909DF7E36BD7620BD78EC2613860697A77F108076
:200140005FBD7A94BD7A948620B71080BD719ABD7A9B324A26DA96CD270531317E71F57C56
:20016000001B961B810626158D16BD7A7E96D3810426014F4C97D3BD7A817F001BDE7C399A
:20018000CE7EE4A600270BD6C0260140BD7B8E0820F196C04C840197C03996C72607BD7FFE
:2001A0004796D5260139CE2012BD79A626F796D2810427F17C00D286FFBD7AF9860197D33B
:2001C00097D497CD860490D248487F0019971ADE194FA700080808088C001026F5CE000FEA
:2001E0004FA7200926FB9720BD7A72862697AA86FFBD7C9E39BD7B1296C827058633BD7B18
:200200008E4F97BF97C897CB97CC97C997C197C397C4860197BDBD7B8EBD7A72BD783F86D6
:200220000F97BEBD7B8E96D4971C862CBD7B8EBD7A81B620092A1796D491BB26117C00CBF3
:20024000861DBD7B8E4C812126F8863297AC860A9793BD719A96CC261496AE843F8135262D
:2002600005BD7A7E200781102603BD7A81BD78EC2705B620212A30860397A797C74F97CDB5
:20028000B7108097A397A497A5979097CA862BBD7B8EBD7A9BBD7620B620432AF55FBD7A74
:2002A000947C00CD7E76D9CE2041BD79A626037C00A3CE2042BD79A62606BD79F0BD783F6F
:2002C00096B12615CE2040BD79A6260D86069794861997B17C00A3201796B22619CE2047AF
:2002E000BD79A626117C00A386069795861997B2BD783FBD7B48BD75B8CE203BBD79A62623
:20030000108603979ABD7B48963C840227357C00A4CE203ABD79A626108603979BBD7B484A
:20032000963C8404271D7C00A4CE2039BD79A626158603979CBD7B48963F840827057C007C
:20034000A420037C00A396C2264CCE203EBD78FB264496388502270BBD7A0386C9BD7B8E51
:20036000BD77A496388504270BBD7A0386C8BD7B8EBD77A496388508270BBD7A0386C7BD25
:200380007B8EBD77A4BD79E9C61EBD7A948606979686C6BD7B8ECE203DBD78FB260F7C00D7
:2003A000A57C00A5C640BD7A9486069799CE203CBD79A62620862097C2963C8401260C5FB7
:2003C0008601BD7BFF861797A9200A5F8610BD7BFF861797AACE2033BD79A626078601BDE0
:2003E0007885203DCE2032BD79A62620861DBD7B8E8637BD7B8EBD78C896CA270686FF97CF
:20040000B397CA963484042757BD79FCCE2031BD79A62616861EBD7B8E8638BD7B8EBD786C
:20042000C8963484042739BD79F7CE2037BD79A6260E8602BD7885963284022723BD79F7D9
:20044000CE2036BD79A6261B861FBD7B8E8639BD7B8EBD78C8963284022705BD79FC20039F
:20046000BD79E9CE2035BD79A626108623BD7B8E4C812626F896C026202016CE2034BD797E
:20048000A626228626BD7B8E4C812926F896C02708BD79FCBD7A032003BD79E98621BD7BD6
:2004A0008E4CBD7B8ECE204BBD79A6261096C12703BD7885BD79F7BD79F7BD79F7CE204A57
:2004C000BD79A6261B963D850826057C00A42003BD79F7861EBD7B8E8638BD7B8EBD78C819
:2004E000CE2049BD79A6260E963D850426057C00A420037C00A5CE2038BD78FB2617BD7901
:20050000F7BD79F7861DBD7B8E8637BD7B8EBD78C8860A9797CE203FBD78FB2614BD79F74C
:20052000861FBD7B8E8639BD7B8EBD78C8860A9798CE2048BD79A62606BD79F0BD77ACCEFD
:200540002043BD78FB26037E76BBBD7A9B7E725296AA810C220C96C327087A00C3BD780027
:20056000200E96C4270A96AC26067A00C4BD77AC96C92743811A223F2615B6200A2A08968E
:20058000A58B1497A5202D7F00ACBD7C8D2025D6AC2624CE7ECABD7CE7A600271381FF26D0
:2005A00005BD78E1200ABD7B8E7C00C996C920E3860C97AC7C00C93996CD2763CE2027BD77
:2005C00079A6260C7C00A5BD7800860197CA2048CE2025BD79A6260E7C00A5BD7800860124
:2005E00097CA86042032CE2026BD79A6260F7C00A5BD7800863ABD7B8E8602201BCE2024E8
:20060000BD79A6261A96A58B0397A596C38B0397C3863ABD7B8E86089ABF97BFBD77D9396F
:20062000CE203EBD79A62604860A9796CE203DBD79A62604860A9799CE2038BD79A62604AE
:20064000860A9797CE203FBD79A62604860A97983996CD26013996CA2B042718200C7A007A
:20066000B326074F979097CA200A96AE840326048603979096B04C810223014F97B0CE2037
:2006800022BD79A62E062B078608200D4F200A9691260896B0260486019791CE2023BD7907
:2006A000A62E062B078608200F4F200C9692260A96B081012304860197923996CC26037EBD
:2006C000724E4F979097CABD7A9B96A39AA49AA59AC39AC426F1BD7764BD7A7E96C8270354
:2006E0007A00D396D391D2260AD6D4D1BB270A5CD7D44F4C97D37E71F54F97CDB620022AA5
:2007000054862DBD7B8E86D4BD7B8E860797D7C60CD7D8D6D896D6971C961C8B3019971C6A
:2007200096D7BD7A9B4A26FA5A26EE96D7811C27087700D87800D720DACE0000961CA100B0
:20074000260ABD7C9DBD7A9B96AB26F9080808088C001026E78632BD7B8E4F97D397D29761
:20076000C77E70C08D3E96BD26013996CB27037C00A57C00A596BD8114221C260A86F5BD2B
:200780007B8EBD78342018810A220E260EBD783486F6BD7B8E2008800A800A40BD7B8E7A59
:2007A00000BD20C0BD7A9B96AA26F93996C92711811B2624BD78E1860FBD7B8E7F00C920DC
:2007C000087C00BE96BEBD7B8EC60BD7AC811C2607860F97BE7C00C939D6BF863E54240363
:2007E000BD7B8E4C5D26F696C1261496BF810F260E860197C18634BD7B8E8636BD7B8E39AA
:00000001FF
