:2000000096BD811D27224C97BD810A2D1826068D18860A201081142D0A26068D0C860B2063
:2000200004800A800ABD7B8E3986FFBD7B8E4A81F526F8398601BD7B8E4C810B26F8399635
:20004000C127158B3340BD7B8E96C1810226014F4C97C18B33BD7B8E96C08B2940BD7B8E57
:200060008012BD7B8E86C3BD7B8E96C04C840197C08B29BD7B8E8B12BD7B8E96C0270586B6
:200080003DBD7B8E3991C1263E86CCBD7B8E4ABD7B8E4ABD7B8E4F97C197BF86C34ABD7B6E
:2000A0008E81BF26F8860A979F96B726037E7C874A26037E7C9D4A260896A58B1497A520DF
:2000C0000696A58B1E97A539963084078107261096CB260C8620BD7B8E863297AC7C00CB71
:2000E0003986F1BD7B8E4A81E326F839CE2013BD79A62706CE2020BD79A639BD79A62E0E40
:20010000270896B42B087A00B439862897B43996AD270ECE7E48BD7CE7F67E607A00AD2053
:200120005896AB270ECE7E1BBD7CE7F67E3A7A00AB204696AC270ECE7E3BBD7CE7F67E4758
:200140007A00AC203496AA270ECE7E02BD7CE7F67E1A7A00AA202296A9270ECE7DF1BD7C65
:20016000E7F67E017A00A9201096A82735CE7DE0BD7CE7F67DF07A00A8B76000B7300096D2
:200180008084F01BB71080E60054545454968884F01BB71088E600C40F968484F01BB710AE
:2001A0008439B7600039A6002A11BD79C74D2E11BD7CC24D270EBD79CE4F39BD79CB860236
:2001C0003986FF39860139C6FF20055F2002C601DF109611801097134F9712DE125D2C04F1
:2001E000A6402002E740DE103996A48B0597A43996A38B0597A3397C00C420037C00C37C11
:2002000000A539BD79FC20F496A7270CD6AD26614A97A7861797AD3996A6270ED6ABC10AE1
:20022000224F4A97A6861F97AB3996A52714D6AAC10A223D4A97A586105FBD7BFF861797A0
:20024000AA3996A42714D6A9C10822254A97A486015FBD7BFF861097A93996A32713D6A815
:20026000C108220D4A97A34FC610BD7BFF861097A839D6D2862EBD7B8E4C5A26F9395F20F9
:2002800002C608860490D348488B03CE0000BD7CE7E70039BD7A9B5A26FA393637DF1796F7
:2002A000B127037A00B196B227037A00B296C227037A00C279200B7900CF96CF840F810374
:2002C000260C97CE96D026068E00FF7E7CF5BD7B48BD75B8BD7550BD790F96D02606BD7A7F
:2002E00008BD7651BD7B15DE173332394FE6002A028B02E6012A014C39CE000FA70009265A
:20030000FBA7003986FFCE0030A700088C004026F8394F20F1B62000844091AF27F7B7405E
:200320000097AF7C00AE96C727167A00B52611867897B57A00B62608863C97B6C60AD7A04F
:2003400086109BD61997D639CE0090DF10CE7EA4DF12DE10A60027146A00DE12A600E601F3
:20036000CE1000BD7CE7EA00E7002011DE12A600E601CE1000BD7CE753E400E700DE1208EC
:2003800008DF12DE1008DF108C00A326C539DF1036375F4D2C021640CE7E61BD7CE7A6002D
:2003A0004444444497134F9712A600840F810F260286105D2C01439714DE12A6305D2C0439
:2003C000941420029A14A730DE10333239860490D348487F0019971ADE197F00168603E681
:2003E000222B127D00162610C10F2E09C1002603532005CAF07C0016E702094A26E139970D
:2004000012D713BD7A81968084DFB7108096CC2611860197C797CC4A97C697C5963E84FE2E
:20042000973E860490D348487F0019971ADE19A6209B1319A720A62116C4F0D71199121999
:20044000A72184F09715A6229710890019A7229714BD7BCD9689D68A8D0D9685D6868D0706
:200460009681D6828D013991102604D111270891142604D115270139B6200C2B20B6200D44
:200480002B0139C60AD79D861C97C82004C60AD7A17C00A686337C00C8BD7B8E394F4D2B61
:2004A000122604C60AD79DD6D5D1BC27015C7C00A62007860A979ED6D55AD7D5BD7CD5979C
:2004C0001D39C60186C84A26FDA6002A065A26F48601394F3917378B0019C10F2307C010F6
:2004E0008B061920F53339DF199B1A971A24037C0019DE19394F97CDBD7AF9968997069652
:200500008A97059685970A968697099681970E9682970D96BB971CD6BCBD7CD5971D86F1F6
:20052000970086FF97D097CE97019702BD7B04BD7A9B8D0726F9BD7B12200E3696CE81034B
:20054000260586FF97CE4F32397C0000BD7A9B4F971C971DCE20108B0119E6002A0B971D56
:20056000C610D7A8C680BD7A948DD02708088C204C26E420D77F00A87C0000CE0090860100
:20058000971DB620222A0CC614E700BD7A94C614BD7A94B620232A1BC608BD7A94B6202378
:2005A0002BF6C610BD7A94961D811327CE8B0119971D08BD7A9BBD7D3B26C77E700096D94B
:2005C00081AA261296DA8155260C30A6058170250C818024083B86AA97D94397DA7E700099
:2005E000202021313233445566778899AABBCCDD0388889977AA66BB55CC44DD33EE22FFED
:20060000110E902091219323942496269727982899299A2A9B2B9C2C9E2E0000000000FFD2
:20062000EFDFCFBFAF9F8F7F6F5F4FAFAFAFAFAFAFAFAFAFAFAF00000000004143456779B7
:200640009BACBDCFDFEFFF07A5C7D9EAFCFEFEFEEECEAB8A7968574635352525141404047B
:2006600007003132343871727478B1B2B4B8F1F2111214185152545891929498D1D2010290
:200680000408D4D844E221222428488161626468A1A2A4A8E142E4F4828488C1C4C2F8C876
:2006A0003F0F1F0088408C8080808C408C208C1080408820881088808420841084808C0114
:2006C0008C028C048C088440801000FF171C00181B0016191A001500140013001200110007
:2006E00010000F00D7DEDFC5DDDBD9C62A3C413D2426283300FF00000000000A0B171C005B
:20070000181B091D0019161A080C373E340015071E0014060013050D383F351F0012040020
:200720001103200010020E394036000F010000000000FF080C0F14112233448899AA811268
:2007400024369BA5B7011396D591BC260986DFB41080B71080398620BA1080B71080CE20FF
:2007600010BD79A62616C602BD7A9BB620102A0C5A26F596B8D6C58D21D7C539CE2011BDFE
:2007800079A62615C602BD7A9BB620112A0B5A26F596B9D6C68D03D7C6394D270F81072355
:2007A0001680081B5CC4014D2707200B5CC103270337200E5F860137368601BD7C9E324ADD
:2007C00026F6860A97A2C603BD7A943396B991B82604D7C5D7C63906BD3263DE2FA60A0024
:2007E000EDA60B972AC60CBD3255DF338604972D962B972CCE00C6DF705570557DBE7DD615
:00000001FF
