:20000000A6BD70DDBD773F8D63BD70EDBD714FBD70C3BD7844DE6B270809DF6B2603BD76A6
:200020005920E196D081AA261E96D18155261830A600816F2311817F220DDF1A961A260717
:20004000961B81D12301397E7BF296D081AA26F796D1815526F130A605816F23EA817F2259
:20006000E6DF76967626E096778DD73B4FCE204FE6005949098C204B26F648CE7E8CBD7604
:2000800006A6009782B620092B034F2002A6019781270AF6200C2B058B03199781CE200E20
:2000A000BD70B9CE7E88BD7606A60097A88603F620032A028B0297A7394FE6005949E601D8
:2000C0005949397A00172A1486329717BD764796AA810426014F4C97AABD764A39CE7EBB11
:2000E000DF6DCE7F49DF724F9771977539967127047A007139DE6DA6004C2605BD70DD2049
:20010000F44C260708A600976F20374C260F7A006F272F09A60081FE26F90820254C260794
:2001200008A6009770201B4C2610DE72A60027030820F908DF72DE6D2008A600BD76144D06
:200140002B0508DF6D20AE9670977108DF6D39967527047A007539DE72A60081FF260809A7
:20016000A6004C26FA201181FC260708A60097742006BD76144D2B0508DF7220DA967497FB
:200180007508DF7239BD76744F97B297B497B597C297C397C497C797C897CD97C0439764BE
:2001A00096AB8AF0971CCE00126F460926FBBD75E1BD7478BD745FBD75EF8630BD76144C5C
:2001C000813726F8863C97BE860F975DBD7A0ECE0053C6FFA600260908CB08C12F26F520A3
:2001E0001B5C4424FC37C407485A2AFCA70032CE7E2248BD7606EE002702AD00BD78442035
:20020000CB9630840127548670201296308402274A8671200896388404274086737C00C354
:20022000202C96348404273386722008963D8402272986757C00C22015963C8404271C866C
:2002400074200896318404271286767C00C4BD7614BD747896A28B0597A23996A48B0597B3
:20026000A4398680201A86402016862020128610200E8608200A8604200686022002860130
:200280009AAC91AC272997AC432609864CBD7614860D200ED6B42614850F270485F0260CD2
:2002A000860CBD7614860A979C7C00B4BD75EF7C00A07E750B860397599639840127102013
:2002C0000A8603975A963D840127047C00A0397C00A23996C5261F861E97C58607975C202B
:2002E0000C96C62611861E97C68607975BBD75907C00A47C00A4397C00A43986059BA497EA
:20030000A4398601200886022004860420009AC791C7271997C781072610B620082B069641
:20032000C8810726058604BD758ABD745F86039BA097A07E750BD6BE2660861EBD761496D8
:20034000C2C601201CD6BE26518601BD758A96C3C602200DD6BE2642861FBD761496C4C634
:20036000047C00A07C00A04A2B157C00A04A2B0F7C00A07C00A04A2B0686059BA097A0DA8D
:20038000C8D7C8C107261396C7810726048604200696C126058602BD758A7E7478963484B8
:2003A00001260F20069635840426077F00A17C00A2397F009F7C00A039862897CD398E009E
:2003C000FFBD7844CE008D4FAA00088C00A726F84D26EB96B226037E71C8BD754DBD75C7FA
:2003E000BD764796C127037A00AA96AA91A9260AD6ABD1A7270A5CD7AB4F4C97AA7E7185DC
:200400008637BD76144F97B197C997CA9764864FBD7614B620022A448610BD7614CE7EAC4E
:2004200096B8971C4F9716A600271708D616D7A5BD78444A26F67C001686309B1C19971CC1
:2004400020E5CE0000961CA1002608BD7BD6C614BD78B0080808088C001026E97E7001D6EB
:20046000C786205424098B40BD761480402003BD76144C812326EC3996C85F85012602D6D6
:20048000C286235A2A028B40BD761486245A2A028B40BD761496C85F85022602D6C3862567
:2004A0005A2A028B40BD761486265A2A028B40BD761486275A2A028B40BD761496C85F85D9
:2004C000042602D6C486285A2A028B40BD761486295A2A028B407E761486059BA097A0C645
:2004E00037BD78B0863C97BE865EBD76144CBD76144F97C8F620082B0297C096C084049746
:20050000C0BD7597BD7478BD745F3996B5811E27F97C00B586039B9E979E8640BD76144C55
:20052000814C26F8D6B5C11E2604860B201BC1142D06860AC0142008C10A2D07C00A860984
:20054000BD76145D270686FF1BBD76143996B5368DC8BD784496A09A9F26F77A00B52B0570
:200560007C00A020EB3297B596B4271D4A2709864DBD7614860C2002864CBD76147A00B4B9
:200580008D98C619BD78B020C4399AC097C0200796BF4C840197BFD6C0C5042704C4FDD7DF
:2005A000C0866ABD76144C817026F8542406862A9BBF8D60542406862E9BBF8D5754240686
:2005C000862C9BBF8D4E3996AACE00AC8D3896AC43850F26028A0F85F026028AF043A700A1
:2005E0003996AACE00AC8D1EA60097AC7E75EFD6AC861D5425048D1C20068B408D168040F3
:200600004A811526EE39DF1A9B1B971B24037C001ADE1A39DF1436375F847F813F23038036
:200620004053CE7DC68DDFA60044444444971B7F001AA600DE1A5D2A0543A4302002AA306C
:20064000A730DE143332395F2002C608BD7B53E7033986FFCE001D200586FFCE000FA70098
:200660000926FBA7003986FFCE0030A700088C004026F8394F20F19640841F810F262A96CC
:20068000B34C97B381042D0D8E00FFBD7844964026F97E7BF216CAF0D7004A48CE7E82BDA8
:2006A0007606EE008E00FF6E0096B39AB62626BD77DB9643840F81072603BD775296448DD7
:2006C00015C101222096458D0DC101221896468D05C101221039C608D71A5F4424015C7A98
:2006E000001A26F7398E00FF8D49860A978E4F976497CD97C14C97B6BD76748611BD76144E
:2007000096B1272497B2BD764ABD78448D31B620382AF65FBD784496449A459A4626F45A37
:2007200026F27F00B67E73DDC632BD78B77F00B67E7001CE008D6F00088C00A726F839B684
:20074000203C2A0486069761B6203B2A04860697623996B7271096B1270D96A9810427069E
:2007600096AB81012722394F97A9976B976C4C97AB97AA97B1BD7659CE00046FAC0926FBE6
:20078000CE00106F1F0926FB860390A94848CE0000BD76066F007C00A97C0092860697673E
:2007A0008699BD7BE196A9810126BB8E00FF7E7185CE2006BD70B936CE2000BD70B93358EF
:2007C000581B4848CE7F8ABD7606A6009785A6019786A6029789A603978A398DD4964184F9
:2007E0000F81072609D6C9CE00858D14D7C99642840F81072609D6CACE00898D03D7CA397D
:00000001FF
