:200000003991C1260E96C18B2140BD7B957F00C17E7C783996BA270ECE7E98BD7CD8F67E38
:20002000B07A00BA205896B8270ECE7E6ABD7CD8F67E8A7A00B8204696B9270ECE7E8BBD6C
:200040007CD8F67E977A00B9203496B7270ECE7E48BD7CD8F67E697A00B7202296B6270EC2
:20006000CE7E2FBD7CD8F67E477A00B6201096B52735CE7E1EBD7CD8F67E2E7A00B5B760CF
:2000800000B73000968084F01BB71080E60054545454968884F01BB71088E600C40F968488
:2000A00084F01BB7108439B7600039A6002A11BD78CC4D2E11BD7CC54D270EBD78D34F395F
:2000C000BD78D086023986FF39860139C6FF20055F2002C601DF109611801097134F9712E2
:2000E000DE125D2C04A6402002E740DE103991BD263196BD8B2540BD7B95862540BD7B95C0
:20010000862940BD7B957F00BD8611C60ABD7CE696C526037E7C784A26037E7C8696B28BA5
:200120000A97B23996B18B0597B13996B18B0397B13996B08B0597B03996B08B0A97B08687
:200140000C97B939860C97B97C00B13996B18B0297B196B08B0597B039B620012A1096B4F5
:20016000270CD6BA26694A97B4861797BA3996B3270ED6B8C10A22574A97B3861F97B83960
:2001800096B22716D6B72704C11026434A97B286105FBD7BFE861F97B73996B12717D6B6ED
:2001A000260E4A97B186015FBD7BFE861897B639C11227EE3996B02716D6B5260E4A97B045
:2001C0004FC610BD7BFE861097B539C10827EE3996D7810C270A4C97D7BD7B95810C271418
:2001E0003996D8810C270C4C97D88B0CBD7B95811827013996BD26124C97BD8B25BD7B95D7
:200200008625BD7B958629BD7B953996D98B2A40BD7B958002BD7B9596D94C840197D98BF6
:200220002ABD7B958B02BD7B95D6DAC1022D09862ABD7B954CBD7B9596BD2F158B2540BDEA
:200240007B9596BD810326014F4C97BD8B25BD7B9596C127158B2140BD7B9596C1810326D7
:20026000014F4C97C18B21BD7B9539D6D3861DBD7B954C5A26F9395F2002C608860490D484
:2002800048488B03CE0000BD7CD8E70039BD7A945A26FA393637DFAA968D27037A008D96E3
:2002A0008E27037A008EBD7B19BD7814BD7959BD75C8BD7AE3DEAA3332394FE6002A028B2F
:2002C00002E6012A014C39CE000FA7000926FBA7003986FFCE0030A700088C004026F839A2
:2002E0004F20F1B62000844091BC27F7B7400097BC7C00BB96CC27197A00C326148678976A
:20030000C37A00C4260B863C97C48612C60ABD7CE686109BDB1997DB394F5FCE0090BD7CF2
:20032000D8A600971227026A001748CE7EB1BD7CD8A6019710A60097157F0014DE14D71684
:20034000D612270EE600DA10CE1000BD7CD8E700200F730010E600D410CE1000BD7CD8E788
:2003600000D6165C17C11326B24FB75080B7508CB75084B75088C601969F2703F75080966C
:20038000A02703F7508C96A12703F7508496A22703F7508839DF1036375F4D2C021640CED0
:2003A0007ED9BD7CD8A6004444444497134F9712A6005D2C01439714DE12A6305D2C049478
:2003C0001420029A14A730DE10333239860490D448487F00AC97ADDEAC7F001A8603E62235
:2003E0002B127D001A2610C10F2E09C1002603532005CAF07C001AE702094A26E139971215
:20040000D713968084DFB71080860497CC97D07F00CB90D448487F00AC97ADDEACA6209B46
:200420001319A720A62116C4F0D711991219A72184F09715A6229710890019A7229714BD62
:200440007BCC9689D68A8D0D9685D6868D079681D6828D013991102604D111270891142654
:2004600004D115270139B6200C2B1BB6200D2B0139860FC60ABD7CE6861F97B8861A97CD45
:20048000BD7B95861F394F4D2B232607860FC60ABD7CE696D68B011991CA2D09968084DFFB
:2004A000B7108096CA97D6971D7C00B3398610C60ABD7CE696D64A16C40FC10F260280066A
:2004C00097D6971D39C60186C84A26FDA6002A065A26F48601394F39DFAC9BAD97AD240370
:2004E0007C00ACDEAC39DF1036CE0090BD7CD8E70032DE10394FBD7AC796899706968A977D
:20050000059685970A968697099681970E9682970D96C9971C96CA971D86F1970086FF9796
:20052000019702BD7AD28D05BD7AE02018BD7A94B620122AF8C604BD7A8DB620122BF6C605
:2005400004BD7A8D397C0000BD7A944F971C971DCE20108B0119E6002A10971DC610D7B5C4
:200560008C2012270DC680BD7A8D088C204C26E320D67F00B58DB67C0000CE009086019711
:200580001DB620222A0CC614E700BD7A8DC614BD7A8DB620232A1BC608BD7A8DB620232BF9
:2005A000F6C610BD7A8D961D811427CE8B0119971D08BD7A94B620122AC7BD7D2D86909755
:2005C0001C7F00D4961C8B111926028690CE001DBD7ACA5FD70FD70BD707D70396D44C8105
:2005E000052602860197D4BD7A7AB620122B07C680BD7A8D20CEBD7D2D7E7CF596E181AA21
:20060000261296E28155260C30A6058170250C818024083B86AA97E14397E27E7000B4C4F3
:20062000A494455565768696A7B7C8D9EAFB04040604062426343644565466748684969445
:20064000A6B4C6D4E6E4E606E0C0E0C0E1C1E1C200E2C2E3C3E3C4E4C4E5C5E5C6E6C7E7E9
:20066000C8E8C8E9C9E9C9E9C90000000000FFEFDFCFBFAF9F8F7F6F5F4FAFAFAFAFAFAFFE
:20068000AFAFAFAFAF0000000000004488FDFFFFFFFFDEAC7B5A1605A5C7D9EAFCFEFEFE8B
:2006A000EECEAB8A7968574635352525141404040788408410842088108820808088808018
:2006C000408C808C108C208C408480844080108C018C028C048C08802000010204414244B5
:2006E000818284C1C2C4111214515254919294D1D2D4A1A2E1E2B1B2F1F2B42224326421D3
:2007000034317472626171A40804000600080005000700090006000900120007001000133C
:20072000000800120016000900130017001000150020001100160021001200180024001368
:20074000001900250014002100280015002200290016002400320017002500330018002784
:2007600000360019002800370008121520D9C62A413D2426283300FF00000000000A0B1765
:200780001C00181B091D0019161A080C373E340015071E2922213B2325273A001406001327
:2007A000050D383F351F001204001103200010020E394036000F010000000000FF080C0F11
:2007C0001400000000000000000000000000000096AC810127037E75C53900000000000026
:2007E000000000000000000000000000000000000000000000000004740400007DFC7E1472
:00000001FF
