:200000008E00FF4FCE00E0BD7ACACE00404CA700088C008026F84F976597569757B76000E5
:20002000B71088BD7B19CE000F8688971C971DBD7ACA86FF971E971F97039707970B970F5D
:20004000867897C34497C4860897105FCE204FA6002A02DB10740010098C204B26F14F5DD4
:2000600027058B065A26FBCE7F09BD7CD8A6009789A601978AA6029785A6039786A6049788
:2000800081A6059782C603B620032B02C605D7C9CE2004BD7ABA97C5CE2006BD7ABA48F67F
:2000A00020002A014C97C8CE2008BD7ABA48F6200A2A014C97C7CE200EBD7ABACE7F69BDC6
:2000C0007CD8A60097CA860197D997D7860497D4861797D8862597BD862297C1CE05A0DF0E
:2000E0001896D691CA27058620B71080BD75A9DE18260586FFBD7AC709DF18B6200B2A037B
:200100007E7CF596D781012E028B0C4A40BD7B95408B06810C2F02800C40BD7B9596D781CD
:200120000C26014F4C97D7BD7B958B06810C2F02800CBD7B9596D84C81182F02800C40BD01
:200140007B95408B0681182F02800C40BD7B9596D8810D260286194A97D8BD7B958B068100
:20016000182F02800CBD7B9596D74A27048106265E96D98B2A40BD7B958002BD7B958002EE
:20018000BD7B95BD7A7796D4810426014F4C97D4BD7A7A96D94C840197D98B2ABD7B958B5A
:2001A00002BD7B958B02BD7B9596BD40BD7B95408129260286244C97BDBD7B9596C140BD39
:2001C0007B95408122260286254A97C1BD7B95860A36BD77DE2613860697B47F10805FBDD7
:2001E0007A8DBD7A8D8620B71080BD71FEBD7A94324A26DD96D127037E725C7E70EC96CCB8
:200200002607BD770296D6260139CE2012BD78AB26F796D3810427F17C00D386FFBD7AC7DA
:20022000860197D497D597D1BD7A7A860490D348487F00AC97ADDEAC4FA700080808088C2F
:20024000001026F5CE000F4FA7200926FB9720BD7A6B862097B786FFBD7C87394F975197BD
:200260005097DA97C097C197CD97BD97CE97CF97D097D9BD7AE096D591C926087C00CF86D9
:200280002EBD7B95860197D797D8BD7A6B862ABD7B958B02BD7B958601BD7B95860DBD7B67
:2002A0009596D5971C861CBD7B95BD7A7ACE2037BD78AB2E07860CC607BD7CE6CE2038BDD0
:2002C00078AB2E0C860DC607BD7CE6C640BD7A8D860BC60ABD7CE6BD71FE96D0270696BEE5
:2002E0008104271496BE2603BD7A7A81802603BD7A7796BE8B0497BEBD77DE2708CE2021B0
:20030000BD78AB263B860A97B497CC4F97D1B7108097B097B197B2979097CE8619BD7B9590
:20032000BD7A9496BA26F9B76000BD75A9CE2035BD78AB26EBC6FFBD7A8D7C00D17E767142
:20034000968D261CCE2030BD78AB26147C00B0BD7A0B8619978D860AC606BD7CE6BD7B1903
:20036000CE203EBD78AB260996B08B0597B0BD7A0B968E261CCE2031BD78AB26147C00B018
:20038000BD7A0B8619978E8609C606BD7CE6BD7B19CE2032BD78AB26067C00B0BD7A0BCE24
:2003A0002033BD78AB260A7C00B096D92703BD7A0BCE2034BD78AB260A7C00B096D92603DD
:2003C000BD7A0BCE2024BD78AB26189636464624057C00B120037C00B08602C603BD7CE63E
:2003E000BD7B19CE2025BD78AB26189637464624057C00B120037C00B08601C603BD7CE60E
:20040000BD7B19CE2026BD77ED26208602BD78018602BD78EE96D736BD77763297D7BD7B82
:20042000954A26FA8604C60ABD7CE6CE2027BD77ED26248603BD78018603BD78EE96D836B5
:20044000BD77A63297D88B0CBD7B954A810C26F88603C60ABD7CE6CE2035BD77ED26037E65
:20046000764ACE2036BD78AB2606BD79D0BD793996C027137A00C027037E7506860CC607CB
:20048000BD7CE64CBD7CE6CE2037BD78AB2609860197CEBD79248D13CE2038BD78AB266626
:2004A000860197CEBD79248D02205BCE2037BD78AB2C52CE2038BD78AB2C4A868097C096FA
:2004C000B28B0297B27C00DA96DA8101262996D591C926107C00CF862E40BD7B95862FBD84
:2004E0007B9520087C00CF862EBD7B95862ABD7B954CBD7B95200E8102260A96C14C97C186
:200500008B21BD7B9539CE2039BD78AB2606BD79E1BD7939CE203ABD78AB2606BD7939BD10
:2005200077D2CE203BBD78AB261396B28B0297B28601BD78018601BD78EEBD77D2CE203C7B
:20054000BD78AB2604860397DFCE203DBD78AB2604860397E096B9261C96DF270B7A00DFCC
:20056000BD79D0BD7944200D96E027097A00E0BD79E1BD7944CE204ABD78AB260ABD79249B
:2005800096BD2703BD78EECE204BBD78AB2614BD792496BD2703BD78EE96CE270686FF97C1
:2005A000BF97CEBD7A947E72D7CE2026BD78AB26078604C60ABD7CE6CE2027BD78AB2607C9
:2005C0008603C60ABD7CE63996D126013996CE2B0E27264A2615860F97907C00CE201A7A7A
:2005E00000BF26074F979097CE200E9690260A96BB840326048603979096874C81022301EE
:200600004F9787CE2022C6068D08CE2023C6058D0139D7AEBD78AB2E062B07C62420205F05
:20062000201D96AED687270EC102261D81052619D695261520088106260FD696260B5C96C3
:20064000AEBD7CE68B02BD7CE63996D026037E725C4F979097CEBD7A9496B09BB19BB22662
:20066000F5C650BD7A8DBD7776C650BD7A8DBD77A6BD7A7796CD27067A00D47F00CD96D40B
:2006800091D3260AD6D5D1C9270A5CD7D54F4C97D47E725C4F97D1B620022A58861BBD7B0C
:2006A000954C40BD7B95860797DCC60CD7DDD6DD96DB971C961C8B3019971C96DCBD7A9479
:2006C0004A26FA5A26EE96DC811C27087700DD7800DC20DACE0000961CDF18A100260ABD5D
:2006E0007C86BD7A9496B826F9DE18080808088C001026E38604973B4F97D497D397CC7EA4
:2007000070C696D691CA260986DFB41080B71080398620BA1080B71080CE2010BD78AB2748
:2007200009CE2011BD78AB27053996C7200296C897C67C00D2860EC60ABD7CE696C681057F
:2007400022137A00D2368601BD7C87324A2AF6C605BD7A8D398106260B96D281022DF54F23
:2007600097D220E17A00D296CB26067C00CB4F20D47F00CB20CF8D2696D726074C97D7BDAF
:200780007B953996CF27097C00B24A27037C00B296D740BD7B957A00D77C00B220D8BD7A83
:2007A0009496B726F9398DF696D826094C97D88B0CBD7B953996CF27097C00B24A27037CD5
:2007C00000B296D88B0C40BD7B957A00D87C00B220D496D92604BD79D039BD79E139CE20CB
:2007E00013BD78AB2706CE2020BD78AB39BD78AB2E0E270896C22B087A00C239860F97C279
:00000001FF
