:200000008E01FF8D2EBD7C97B6200B2A037E7E348620B71080CE3840DFE3DEE32603BD7C71
:200020008909DFE38D42BD7136BD7A05BD79ED27FB20E74FB76000CE0090A700088C00D7DB
:2000400026F88688CE000FA7000926FBA700971C971D4F97039707970B970F4F973D973EF1
:20006000973F43971E971F3996BA840F27013996BA841097D527028D32BD7109CE202BA651
:20008000002A078604C605BD7E0D088C203026EFCE2031A6002A06860516BD7E0DCE20309D
:2000A000A6002A06860616BD7E0D39860A97959695D6BAC420270140BD7A567C00959695BB
:2000C000810F26EB96C140BD7A567C00C196C181162604860F97C1BD7A5696C240BD7A5667
:2000E0007C00C296C2810A2604860197C2BD7A568616D6BAC440270140BD7A56862ED6BADF
:20010000C440260140BD7A5639969C40BD7A567C009C969C812D26048623979CBD7A56968E
:200120009A40BD7A567C009A969A812326048619979ABD7A5639BD71D296CE260C96C42797
:200140000139BD785DBD7B8A39CE2012BD78D226EC7C00C496C481012628BD705B862FBD5B
:200160007A568635BD7A56BD7C89860197C3971C97C697D14F970C970D970EBD7D52313123
:2001800020348102260E8636BD7A564F97089709970A20228103260E8637BD7A564F9704AE
:2001A000970597062010810426128638BD7A564F970097019702862097A52007860497C4C9
:2001C0007E713D86FFBD7B4896C481012701397E7272CE2010BD78D22709B600E04C97CED3
:2001E0004F0139CE20108D0B2A1739CE20118D032A0F39BD7BC72708BD7BC72703BD7BC70F
:20020000397C00D08612C60ABD7E0D96CED6C41B2610BD705BCE000086FFA700088C002024
:2002200026F896CF261C7A00D08601BD7B48C614BD79ED27FB37BD785DBD7A05335A26F0E1
:2002400020064A26097A00D08601BD7B48394A260B96D081022DF67A00D020E97D00E12617
:20026000057C00E120DF7F00E120BB96D32603BD7136CE201EBD78D2261C8601BD7A56BDC6
:200280007A918605BD7C7786FF97BF9720861491C12603BD7BE8CE201DBD78D2261086057E
:2002A000BD7C6E4397218602BD7A56BD7C31CE201CBD78D226108603BD7A56BD7A9186056D
:2002C000BD7C6E439722CE201BBD78D2261D8604BD7A56BD7C3186FF97C08605BD7C77434D
:2002E0009723861191C12603BD7BE8CE201ABD78D2262496308A0A973096348A019734BDBB
:200300007C318605BD7C7743972497259728861091C12603BD7BE8CE201FBD78D226249657
:20032000308A0A973096348A019734BD7C318605BD7C7743972497259728861591C12603DE
:20034000BD7BE8CE2020BD78D226168607BD7A568605BD7C77439726861391C12603BD7B8B
:20036000E8CE2019BD78D226198608BD7A568605BD7C77439727BD7A91861291C12603BD59
:200380007BE8CE2018BD78D2261896308A0A973096348A0197348602BD7C80439724972573
:2003A0009728CE202BBD78D22E1EBD784E27022017860ABD7A568605BD7C77439729BD7C9B
:2003C000318604C60ABD7E0DCE202CBD78D22E1EBD784E27022017860BBD7A568605BD7C18
:2003E0007743972ABD7C318604C60ABD7E0DCE202DBD78D22E23BD784E261E860CBD7A561D
:20040000BD7C318605BD7C7743972F972B8616BD7A568604C60ABD7E0DCE202EBD78D22E50
:200420001CBD784E2617860DBD7A56BD7C318605BD7C7743972C8604C60ABD7E0DCE202F56
:20044000BD78D22E1CBD784E2617860EBD7A56BD7C318605BD7C7743972D8604C60ABD7E29
:200460000DCE2021BD78D22608BD7C318605BD7C6ECE2022BD78D226058601BD7C6ECE2031
:200480002ABD78D2260F8601BD7C6E860BC605BD7E0DBD7A05CE2029BD78D2260F8601BD51
:2004A0007C6E860AC605BD7E0DBD7A05CE2025BD78D2260A4F97BB97BD860ABD7C6ECE200F
:2004C00023BD78D2260E860A97BD97BE7F00C08605BD7C77CE2024BD78D2260E8605BD7CFA
:2004E00077860A97BB97BC7F00BFCE2031BD78D22E30BD784E262B8602BD7C80963A840124
:200500002719979F8631BD7A564F97329736973A8618979A8611C60ABD7E0D8605C60ABDD5
:200520007E0DCE2030BD78D22E20BD784E2E1B2706969B2615200C8601979B97A8962E97D9
:200540009E20078606C60ABD7E0DCE2026BD78D2261A8609C603BD7E0DBD7A05962F270708
:200560008601BD7C7720058601BD7C6ECE2028BD78D2260F8608C603BD7E0DBD7A0586013D
:20058000BD7C77CE2027BD78D2261A8607C603BD7E0DBD7A05962F27078601BD7C77200526
:2005A0008601BD7C6EBD75AA2041CE2033C6028D08CE2034C6038D0139D7E2BD78D22E08AA
:2005C0002B0B96E2C624201F96E240201A96E2D6BA56250A81032612D6AA260E20088102AA
:2005E0002608D6A926045CBD7E0D3996C0260D96BD272696BE27137A00BE20147A00C09654
:20060000BD271696C026037F00BD96BA84032709968C8A08B7108C2007968C84F7B7108C00
:2006200096BF260D96BB272696BC27137A00BC20147A00BF96BB271696BF26037F00BB9689
:20064000BA84032709968C8A04B7108C2007968C84FBB7108CBD78F6BD7A0596C12613CE46
:200660000020A6002A0C088C002926F6861097C197C2962E2614CE0029A6002A0D088C00F8
:200680002E26F6862DBD7A56972E96C1272396C2261C96C140BD7A567C00C196C181162D54
:2006A00004861097C1BD7A5686FF97C220037A00C2BD785DCE2032BD78D226037E770ECECB
:2006C0002013BD78D22711088C201626F5BD7B8ABD79ED27FB7E726B8632BD7A564F97A690
:2006E00097A797A897A097A197A27F108CBD707CCE2032BD78D22710BD75AABD7A05BD7866
:200700005DBD79ED27FB20E57F108C7E778B96D4274E860197A8979B962E979EBD78F6BDDF
:20072000785D96A8260A96A7260696A626022007BD79ED27FB20E5860497374FCE0007A715
:20074000280926FB973B963384039733969F27377F009F863140BD7A562005C601BD7D956B
:200760004F97D4B7108C97BB97BDC640BD79ED27FBBD785D5A26F5860CC608BD7E0D863214
:2007800040BD7A567E72725FBD7D955FD7D4D7D2D7CC7C00CDBD7B8A7C00C396C391C42F7F
:2007A000BA860197C37C00C696C691C72E04971C20A9B620022A037E783C963E8A028406D9
:2007C000973EB60010840F97A27F0090864097928601979496A248484848971C96A28B0331
:2007E0001997A286019796969091922C137C0090BD79ED27FB969691942CD97C009620F0A2
:00000001FF
